2024CC  00039777205PENA CASTILLO MARIA MERCEDES                                          CL 145 15 22                                                          0000000000NA                                                                    11001111                             000000319209826000000000000000
2024CC  00039777460ARBELAEZ SOTO LUZ ANGELA                                              CL 112 17 39 AP 20                                                    0000000000NA                                                                    11001111                             000000081846300000000000000000
2024CC  00043758904ESCOBAR LONDONO JENNY MARIA                                           SIN DIRECCION                                                         0000000000NA                                                                    11001111                             000000015452400000000000000000
2024CC  00051629167FONSECA BURGOS MARTHA INIRIDA                                         CL 25 B 72 80                                                         0000000000NA                                                                    11001111                             000000041915600000000000000000
2024CC  00052183926MENDEZ GARCIA KATALINA                                                CL 116 54 45 AP 303                                                   0000000000NA                                                                    11001111                             000000020844200000000000000000
2024CC  00052430332LOPEZ PARRA MARIA DEL PILAR                                           CL 166 9 15                                                           0000000000NA                                                                    11001111                             000000044452872000000000000000
2024CC  00052493299SANCHEZ LOPEZ LIZ MAYID                                               KR 71A 98A11                                                          0000000000NA                                                                    11001111                             000000005375463000000000000000
2024CC  00052705234CHAVES GARCIA JHOANA ANDREA                                           SIN DIRECCION                                                         0000000000NA                                                                    11001111                             000000012400600000000000000000
2024CC  00052804965BARRERA CONDE NUBIA EDITH                                             KR 14 A 0903 SUR                                                      0000000000NA                                                                    11001111                             000000006720000000000000000000
2024CC  00052881059GUTIERREZ MARTINEZ DIANA ANGELICA                                     SIN DIRECCION                                                         0000000000NA                                                                    11001111                             000000009810400000000000000000
2024CC  00052961840TELLEZ RODRIGUEZ VIVIANA                                              KR 12C 152 88 AP 214                                                  0000000000NA                                                                    11001111                             000000003700000000000000000000
2024CC  00053164726VALDERRAMA CORREA ANGELA KATHERYNE                                    KR 20 A 173 A 03 I 8 AP 332                                           0000000000NA                                                                    11001111                             000000023419200000000000000000
2024CC  00053907144BARBOSA MENDIETA CLAUDIA VIVIANA                                      CL 165b 13c 55 apartamento 213 tor                                    0000000000NA                                                                    11001111                             000000007504300000000000000000
2024CC  00080414228MENDOZA CAITA RAUL MAURICIO                                           KR 9A 99 02 OF 705                                                    0000000000NA                                                                    11001111                             000000006500000000000000000000
2024CC  00088272659CHAUSTRE RUIZ DIEGO MAURICIO                                          KR 54 138 81 CA 27                                                    0000000000NA                                                                    11001111                             000000041823000000000000000000
2024NIT 00830055049BVQI COLOMBIA LTDA                                                    KR 16 97 40                                                           0000000000NA                                                                    11001111                             000000003461291000000000000000
2024NIT 00900126911SUGERENCIA CONSULTORES SAS                                            SIN DIRECCION                                                         0000000000NA                                                                    11001111                             000000010000000000000000000000
2024NIT 00900491982EQUIPO INTERDISCIPLINARIO PARA EL MEJORAMIENTO DE LA CALIDAD          KR 44 18 31                                                           0000000000NA                                                                    11001111                             000000005550120000000000000000
2024NIT 00900503165SERVICIOS INTEGRALES EN SEGURIDAD Y SALUD SAS                         SIN DIRECCION                                                         0000000000NA                                                                    11001111                             000000008000000000000000000000
2024NIT 00900597531TRINISALUD IPS SAS                                                    SIN DIRECCION                                                         0000000000NA                                                                    11001111                             000000004056000000000000000000
2024NIT 00901191169MDS CONSULTING LAWS SAS                                               KR 111 BIS 154 A 30                                                   0000000000NA                                                                    11001111                             000000019394700000000000000000
2024CC  01026252056COPETE VILLAMIZAR FRANCIA                                             KR 55 N151 90                                                         0000000000NA                                                                    11001111                             000000007576400000000000000000
2024CC  01026262983GALVEZ GIRALDO LUISA FERNANDA                                         Avenida CL 6 No 2434 Apto 402                                         0000000000NA                                                                    11001111                             000000003355200000000000000000
2024CC  01030558443RODRIQUEZ DIAZ MONICA JOHANNA                                         KR 64 A 22 41                                                         0000000000NA                                                                    11001111                             000000003316200000000000000000
2024CC  01032362481RIOS GARCIA JENNY KATHERINE                                           KR 80 C 74 A 38                                                       0000000000NA                                                                    11001111                             000000012155200000000000000000
2024NIT 00800042144COMERCIALIZADORA E IMPORTADORES DE ELEMENTOS MEDICOS                  KR 13 N 4650                                                          0000000000NA                                                                    11001111                             000000003724097000000000000000
2024NIT 00800042928PROASISTEMAS SA                                                       CL 45 RO 22 18                                                        0000000000NA                                                                    11001111                             000000007283000000000000000000
2024NIT 00800153993COMUNICACION CELULAR SA                                               CL 90 14 37                                                           0000000000NA                                                                    11001111                             000000019931395000000000000000
2024NIT 00800185781AEROREPUBLICA S A                                                     SIN DIRECCION                                                         0000000000NA                                                                    11001111                             000000020925564000000000000000
2024NIT 00830044223CONSTRUVIR LTDA                                                       SIN DIRECCION                                                         0000000000NA                                                                    11001111                             000000026180000000000000000000
2024NIT 00830114068GRUPO VALCAS                                                          CL 97 23 37                                                           0000000000NA                                                                    11001111                             000000004579181000000000000000
2024NIT 00830122566COLOMBIA TELECOMUNICACIONES SA ESP                                    KR 13 27 00                                                           0000000000NA                                                                    11001111                             000000160114111000000000000000
2024NIT 00830504148OPGROUP EU                                                            CL 80 42 281 CON LOS CARMORANES CA4                                   0000000000NA                                                                    11001111                             000000072391675000000000000000
2024NIT 00860010451CASALIMPIA SA                                                         AV EL DORADO 100BIS 70                                                0000000000NA                                                                    11001111                             000000049117339000000000000000
2024NIT 00890100577AEROVIAS DEL CONTINENTE AMERICANO SA AVIANCA                          AV CL 26 59 15                                                        0000000000NA                                                                    11001111                             000000010394905000000000000000
2024NIT 00890904713COORDINADORA MERCATIL SAS                                             KL 12 VIA PARCELAS                                                    0000000000NA                                                                    11001111                             000000010994930000000000000000
2024NIT 00900322022BUENAVISTA SOLUCIONES SAS                                             KR 85A 83 47                                                          0000000000NA                                                                    11001111                             000000014468720000000000000000
2024NIT 00900335488GRUPO DIVAWA SAS                                                      CL 140 6 10                                                           0000000000NA                                                                    11001111                             000000021840000000000000000000
2024NIT 00900347494INNOVASOFT COLOMBIA SAS                                               AC 26 85 D 55 LC 30 A                                                 0000000000NA                                                                    11001111                             000000005935200000000000000000
2024NIT 00900436226ADOBE COLOMBIA SAS                                                    KR 7 71 21 TO B PS13                                                  0000000000NA                                                                    11001111                             000000003523800000000000000000
2024NIT 00900480786NUVA SAS                                                              KR 50 FF 8 SUR 27 OFC 306                                             0000000000NA                                                                    11001111                             000000112958231000000000000000
2024NIT 00900994857HABLAME COLOMBIA SA                                                   AUTOPISTA NORTE KILOMETRO 19                                          0000000000NA                                                                    11001111                             000000007135966000000000000000
2024NIT 00901003327AMAZON WEB SERVICES COLOMBIA SAS                                      Avenida 82 No 1062 piso 5                                             0000000000NA                                                                    11001111                             000000039888910000000000000000
2024CC  00051821190SANCHEZ FRANCO NIDIA STELLA                                           SIN DIRECCION                                                         0000000000NA                                                                    11001111                             000000011277696000000000000000
2024NIT 00830044223CONSTRUVIR LTDA                                                       SIN DIRECCION                                                         0000000000NA                                                                    11001111                             000000104500000000000000000000
2024NIT 00830114068GRUPO VALCAS                                                          CL 97 23 37                                                           0000000000NA                                                                    11001111                             000000033860604000000000000000
2024NIT 00900194253PUNTEAR SAS                                                           KR 57 128 34                                                          0000000000NA                                                                    11001111                             000000008814500000000000000000
2024CC  00080755196ALMANZA AVILA EDUARD ALFONSO                                          KR 15 78 33 LC 160                                                    0000000000NA                                                                    11001112                             000000017119824000000000000000
2024NIT 00800042144COMERCIALIZADORA E IMPORTADORES DE ELEMENTOS MEDICOS                  KR 13 N 4650                                                          0000000000NA                                                                    11001112                             000000065901642000000000000000
2024NIT 00830087848TUGO BOGOTA                                                           KR 68 N 8076                                                          0000000000NA                                                                    11001112                             000000005999700000000000000000
2024NIT 00830122566COLOMBIA TELECOMUNICACIONES SA ESP                                    KR 13 27 00                                                           0000000000NA                                                                    11001112                             000000029905632000000000000000
2024NIT 00890903938BANCOLOMBIA                                                           KR 48 26 85 Av I dustriales                                           0000000000NA                                                                    11001112                             000001674557000000000000000000
2024NIT 00900277370I SHOP COLOMBIA SAS                                                   AV KR 15 124 30                                                       0000000000NA                                                                    11001112                             000000058470000000000000000000
2024NIT 00900299947SILVHER LTDA                                                          CL 53 58 19                                                           0000000000NA                                                                    11001112                             000000016243500000000000000000
2024NIT 00900322022BUENAVISTA SOLUCIONES SAS                                             KR 85A 83 47                                                          0000000000NA                                                                    11001112                             000000022536220000000000000000
2024NIT 00900898750ABC POLYSERVICES COLOMBIA SAS                                         CL 95 No 1445 piso 8                                                  0000000000NA                                                                    11001112                             000000010800000000000000000000
2024CC  00080755196ALMANZA AVILA EDUARD ALFONSO                                          KR 15 78 33 LC 160                                                    0000000000NA                                                                    11001112                             000000003466918000000000000000
2024NIT 00800088702EPS SURAMERICANA S A                                                  CL 31 13A51 L 171819                                                  0000000000NA                                                                    11001111                             000000005390464000000000000000
2024NIT 00800219876PLUXEE COLOMBIA SAS                                                   Autopista Nte 11444 piso 4                                            0000000000NA                                                                    11001112                             000000027426672000000000000000
2024NIT 00800242106SODIMAC COLOMBIA S A                                                  AV 68 80 77                                                           0000000000NA                                                                    11001112                             000000031217293000000000000000
2024NIT 00830055643CINEMARK COLOMBIA SAS                                                 AV KR 98 68 A 88                                                      0000000000NA                                                                    11001112                             000000008322606000000000000000
2024NIT 00830065157LEADERSEARCH SAS                                                      AV CL 26 68 B 70                                                      0000000000NA                                                                    11001111                             000000006799597000000000000000
2024NIT 00830115990SUNHER ROYAL SAS                                                      KR 67 1215                                                            0000000000NA                                                                    11001111                             000000116553194000000000000000
2024NIT 00860007322CAMARA DE COMERCIO DE BOGOTA                                          AV Eldorado o 68D35                                                   0000000000NA                                                                    11001112                             000000006998250000000000000000
2024NIT 00860009578SEGUROS DEL ESTADO SA                                                 KR 11 90 20                                                           0000000000NA                                                                    11001111                             000000034021719000000000000000
2024NIT 00860046192HOTEL PLAZA BOGOTA                                                    CL 100 18A 30                                                         0000000000NA                                                                    11001111                             000000003305820000000000000000
2024NIT 00860049275FASECOLDA                                                             KR 7 26 60 PS 11                                                      0000000000NA                                                                    11001111                             000000004500000000000000000000
2024NIT 00860053831COMERCIAL ALLAN SAS                                                   AV 68 80 77 LOC 21                                                    0000000000NA                                                                    11001112                             000000007071000000000000000000
2024NIT 00860076579FUNDACION INSTITUTO NACIONAL DE SEGUROS                               KR 7 N 28 20 PISO 4                                                   0000000000NA                                                                    11001111                             000000005156600000000000000000
2024NIT 00860076919CREPES WAFFLES S A                                                    CL 93B 12 10                                                          0000000000NA                                                                    11001112                             000000004955800000000000000000
2024NIT 00860079886SOCIEDAD COLOMBIANA DE MEDICINA DEL TRABAJO                           CL 100 19A 50                                                         0000000000NA                                                                    11001111                             000000006245000000000000000000
2024NIT 00890100577AEROVIAS DEL CONTINENTE AMERICANO SA AVIANCA                          AV CL 26 59 15                                                        0000000000NA                                                                    11001111                             000000012308600000000000000000
2024NIT 00890900608ALMACENES EXITO                                                       KR 15 114A 33                                                         0000000000NA                                                                    11001112                             000000004290150000000000000000
2024NIT 00890900943COLOMBIANA DE COMERCIO SA                                             KR 30 10 77                                                           0000000000NA                                                                    11001112                             000000005281204000000000000000
2024NIT 00890903407SEGUROS GENERAL SURAMERICANA SA                                       CL 122 22 61                                                          0000000000NA                                                                    11001111                             000000036226819000000000000000
2024NIT 00900074348SUMICORP LTDA                                                         SIN DIRECCION                                                         0000000000NA                                                                    11001112                             000000009394920000000000000000
2024NIT 00900322022BUENAVISTA SOLUCIONES SAS                                             KR 85A 83 47                                                          0000000000NA                                                                    11001112                             000000004124000000000000000000
2024NIT 00900474794PRICE RES SAS                                                         Cl 97a 8 10                                                           0000000000NA                                                                    11001111                             000000004518097000000000000000
2024NIT 00900514708DOUZE SA                                                              AK 68 41 20 SUR                                                       0000000000NA                                                                    11001112                             000000013368300000000000000000
2024NIT 00901134681CL IMPULSO ESTRATEGICO SAS                                            KR 52 A 127 D 30                                                      0000000000NA                                                                    11001111                             000000003314900000000000000000
2024NIT 00901443102IMPRESOS KOSHER SAS                                                   CL 71 69A 40                                                          0000000000NA                                                                    11001112                             000000003857550000000000000000
2024NIT 00901513909CLOVER4 SAS                                                           Avenida KR 19 109 41                                                  0000000000NA                                                                    11001112                             000000023123088000000000000000
2024NIT 00900874911ORIENTA TALENT CAREERS S A S                                          SIN DIRECCION                                                         0000000000NA                                                                    11001112                             000000447180763000000000000000
2024CC  00039437585GONZALEZ MOLINA CLAUDIA                                               CL 73 20 CA 65                                                        0000000000NA                                                                    11001111                             000000066077644000000000000000